{
  "contractName": "Tickets",
  "abi": [
    {
      "inputs": [],
      "stateMutability": "nonpayable",
      "type": "constructor"
    },
    {
      "anonymous": false,
      "inputs": [
        {
          "indexed": true,
          "internalType": "address",
          "name": "purchaser",
          "type": "address"
        },
        {
          "indexed": false,
          "internalType": "uint256",
          "name": "ticketIndex",
          "type": "uint256"
        },
        {
          "indexed": false,
          "internalType": "uint256",
          "name": "price",
          "type": "uint256"
        }
      ],
      "name": "TicketPurchased",
      "type": "event"
    },
    {
      "inputs": [],
      "name": "owner",
      "outputs": [
        {
          "internalType": "address",
          "name": "",
          "type": "address"
        }
      ],
      "stateMutability": "view",
      "type": "function",
      "constant": true
    },
    {
      "inputs": [
        {
          "internalType": "uint256",
          "name": "",
          "type": "uint256"
        }
      ],
      "name": "tickets",
      "outputs": [
        {
          "internalType": "address",
          "name": "owner",
          "type": "address"
        },
        {
          "internalType": "uint256",
          "name": "price",
          "type": "uint256"
        }
      ],
      "stateMutability": "view",
      "type": "function",
      "constant": true
    },
    {
      "inputs": [],
      "name": "totalTicket",
      "outputs": [
        {
          "internalType": "uint256",
          "name": "",
          "type": "uint256"
        }
      ],
      "stateMutability": "view",
      "type": "function",
      "constant": true
    },
    {
      "inputs": [
        {
          "internalType": "uint256",
          "name": "_index",
          "type": "uint256"
        }
      ],
      "name": "buyTicket",
      "outputs": [],
      "stateMutability": "payable",
      "type": "function",
      "payable": true
    }
  ],
  "bytecode": "0x6080604052600080546001600160a01b03191633179055600a60015534801561002757600080fd5b5060005b6001548110156100c057662386f26fc10000600282600a811061005e57634e487b7160e01b600052603260045260246000fd5b60020201600101819055506000600282600a811061008c57634e487b7160e01b600052603260045260246000fd5b6002020180546001600160a01b0319166001600160a01b0392909216919091179055806100b8816100c6565b91505061002b565b506100ed565b60006000198214156100e657634e487b7160e01b81526011600452602481fd5b5060010190565b6102ea806100fc6000396000f3fe60806040526004361061003f5760003560e01c806350b447121461004457806367dd74ca1461007b5780638da5cb5b14610090578063b8a28336146100b2575b600080fd5b34801561005057600080fd5b5061006461005f366004610258565b6100d4565b604051610072929190610284565b60405180910390f35b61008e610089366004610258565b610100565b005b34801561009c57600080fd5b506100a5610243565b6040516100729190610270565b3480156100be57600080fd5b506100c7610252565b604051610072919061029d565b600281600a81106100e457600080fd5b6002020180546001909101546001600160a01b03909116915082565b6001548110801561010f575060015b61011857600080fd5b6000600282600a811061013b57634e487b7160e01b600052603260045260246000fd5b60020201546001600160a01b03161461015357600080fd5b600281600a811061017457634e487b7160e01b600052603260045260246000fd5b600202016001015434101561018857600080fd5b33600282600a81106101aa57634e487b7160e01b600052603260045260246000fd5b6002020160000160006101000a8154816001600160a01b0302191690836001600160a01b03160217905550336001600160a01b03167f2a91574e12ad96234e84923e146b0946ecfb871cd8d5534dc1fdcbe87a7c01b382600284600a811061022257634e487b7160e01b600052603260045260246000fd5b60020201600101546040516102389291906102a6565b60405180910390a250565b6000546001600160a01b031681565b60015481565b600060208284031215610269578081fd5b5035919050565b6001600160a01b0391909116815260200190565b6001600160a01b03929092168252602082015260400190565b90815260200190565b91825260208201526040019056fea26469706673582212204f912392db17aa4714285a094a6427601755a550ea4e78280af34e0378ee687664736f6c63430008000033",
  "immutableReferences": {},
  "source": "// SPDX-License-Identifier: MIT\npragma solidity >=0.7.0 <0.9.0;\n\ncontract Tickets {\n    address public owner = msg.sender;\n    uint256 public totalTicket = 10;\n\n    struct Ticket {\n        address owner;\n        uint256 price;\n    }\n    Ticket[10] public tickets;\n    event TicketPurchased(address indexed purchaser, uint256 ticketIndex, uint256 price);\n\n    constructor() {\n        for (uint256 i = 0; i < totalTicket; i++) {\n            tickets[i].price = 1e16;\n            tickets[i].owner = address(0x0000000000000000000000000000000000000000);\n        }\n    }\n\n\n    function buyTicket(uint256 _index) external payable {\n        require(_index < totalTicket && _index >= 0 );\n        require(tickets[_index].owner == address(0x0000000000000000000000000000000000000000));\n        require(msg.value >= tickets[_index].price);\n        tickets[_index].owner = msg.sender;\n        emit TicketPurchased(msg.sender, _index, tickets[_index].price);\n\n    }\n\n\n}",
  "sourcePath": "/Users/trongnghia/tunglam/build_Dapps/Tickets/contracts/Tickets.sol",
  "compiler": {
    "name": "solc",
    "version": "0.8.0+commit.c7dfd78e.Emscripten.clang"
  },
  "schemaVersion": "3.4.13",
  "updatedAt": "2023-08-23T07:58:21.036Z",
  "networkType": "ethereum",
  "devdoc": {
    "kind": "dev",
    "methods": {},
    "version": 1
  },
  "userdoc": {
    "kind": "user",
    "methods": {},
    "version": 1
  }
}